:100000000C94AC0D0C94F30D0C94F30D0C94F30DB7
:100010000C94F30D0C94F30D0C94F30D0C94F30D60
:100020000C94F30D0C94F30D0C942C280C94FF28D5
:100030000C94991F0C94F30D0C94F30D0C94F30D88
:100040000C94F30D0C94F30D0C94F30D0C94F30D30
:100050000C94F30D0C9401200C94F30D0C94F30DFF
:100060000C94F30D0C94F30D0C94F30D0C94F30D10
:100070000C94F30D0C94F30D0C94F30D0C94F30D00
:100080000C94F30D0C94F30D0C94F30D0C94F30DF0
:100090000C94F30D0C94F30D0C94F30D0C94F30DE0
:1000A0000C94F30D0C94F30D0C94F30D2C002C0018
:1000B00000000000680069006A006B0000006C002E
:1000C0006D006E006F007000710072007300000020
:1000D0002C002C002C002C002C002C002C002C00C0
:1000E0002C00000029003A003B003C003D000000CD
:1000F0003E003F00400041004200430044004500F4
:1001000000004600470048002C002C002C002C006A
:1001100000000000000000000000000000000000DF
:1001200000000000000000000000000000000000CF
:1001300000000000000000000000000000000000BF
:1001400000002C002C0035001E001F0020002100A4
:100150002200230024002500260027002D002E0069
:1001600000002A00000049004A004B0053003800FC
:1001700025022D002C002C0000002B0014001A007A
:100180000800150017001C0018000C0012001300D6
:100190002F003000280000004C004D004E004A00A7
:1001A00000004B002E022C002C000000390004003F
:1001B0001600070009000A000B000D000E000F00DA
:1001C000330034002002000000002C002C002C0022
:1001D00000002200000000002C002C00E1000000C4
:1001E00031001D001B000600190005001100100061
:1001F000360037003800E100000000002C0000004D
:100200002C004D0000004E0028002C002C00E000C7
:100210000000E300E2000000000000002C000000ED
:10022000000000000000E3007600E0000000000095
:1002300000000000490000004C0000000100010027
:1002400000000000010001000100010000000100A9
:100250000100010001000100010001000100000097
:100260000100010001000100010001000100010086
:100270000100000001000100010001000100000078
:100280000100010001000100010001000100010066
:100290000000010001000100010001000100010057
:1002A000000000000000000000000000000000004E
:1002B000000000000000000000000000000000003E
:1002C000000000000000000000000000000000002E
:1002D0000000010001000100010001000100010017
:1002E0000100010001000100010001000100010006
:1002F00000000100000001000100010001000100F8
:1003000001000100010001000000010001000100E6
:1003100001000100010001000100010001000100D5
:1003200001000100010000000100010001000100C6
:1003300001000100010001000100000001000100B6
:1003400001000100010001000100010001000100A5
:100350000100010001000000000001000100010097
:100360000100010001000000010001000100000087
:100370000100010001000100010001000100010075
:100380000100010001000100000000000100010067
:100390000100010001000100010001000100010055
:1003A000000001000100000000000000010000004A
:1003B0000000010000000100010001000000010038
:1003C0000100010001000000010000000100010027
:1003D0000000000001000100010001000000010018
:1003E0000100010001000100010001000100000006
:1003F00001000100010001000100010001000100F5
:1004000001000000010001000100010001000000E6
:1004100001000100010001000100010001000100D4
:1004200000000100010001000100010001000100C5
:1004300000000000000000000000000000000000BC
:1004400000000000000000000000000000000000AC
:10045000000000000000000000000000000000009C
:100460000000010001000100010001000100010085
:100470000100010001000100010001000100010074
:100480000000010000000100010001000100010066
:100490000100010001000100000001000100010055
:1004A0000100010001000100010001000100010044
:1004B0000100010001000000010001000100010035
:1004C0000100010001000100010000000100010025
:1004D0000100010001000100010001000100010014
:1004E0000100010001000000000001000100010006
:1004F00001000100010000000100010001000000F6
:1005000001000100010001000100010001000100E3
:1005100001000100010001000000000001000100D5
:1005200001000100010001000100010001000100C3
:1005300000000100010000000000000001000000B8
:1005400000000100000001000100010000000100A6
:100550000100010001000000010000000100010095
:100560000000000001000100010001000000010086
:100570000100010001000100010001000100000074
:100580000100010001000100010001000100010063
:100590000100000001000100010001000100000055
:1005A0000100010001000100010001000100010043
:1005B0000000010001000100010001000100010034
:1005C000000000000000000000000000000000002B
:1005D000000000000000000000000000000000001B
:1005E000000000000000000000000000000000000B
:1005F00000000100010001000100010001000100F4
:1006000001000100010001000100010001000100E2
:1006100000000100000001000100010001000100D4
:1006200001000100010001000000010001000100C3
:1006300001000100010001000100010001000100B2
:1006400001000100010000000100010001000100A3
:100650000100010001000100010000000100010093
:100660000100010001000100010001000100010082
:100670000100010001000000000001000100010074
:100680000100010001000000010001000100000064
:100690000100010001000100010001000100010052
:1006A0000100010001000100000000000100010044
:1006B0000100010001000100010001000100010032
:1006C0000000010001000000000000000100000027
:1006D0000000010000000100010001000000010015
:1006E0000100010001000000010000000100010004
:1006F00000000000010001000100010000000100F5
:1007000001000100010001000100010001000000E2
:1007100001000100010001000100010001000100D1
:1007200001000000010001000100010001000000C3
:1007300001000100010001000100010001000100B1
:1007400000000100010001000100010001000100A2
:100750000000000000000000000000000000000099
:100760000000000000000000000000000000000089
:100770000000000000000000000000000000000079
:100780000000010001000100010001000100010062
:100790000100010001000100010001000100010051
:1007A0000000010000000100010001000100010043
:1007B0000100010001000100000001000100010032
:1007C0000100010001000100010001000100010021
:1007D0000100010001000000010001000100010012
:1007E0000100010001000100010000000100010002
:1007F00001000100010001000100010001000100F1
:1008000001000100010000000000010001000100E2
:1008100001000100010000000100010001000000D2
:1008200001000100010001000100010001000100C0
:1008300001000100010001000000000001000100B2
:1008400001000100010001000100010001000100A0
:100850000000010001000000000000000100000095
:100860000000010000000100010001000000010083
:100870000100010001000000010000000100010072
:100880000000000001000100010001000000010063
:100890000100010001000100010001000100000051
:1008A0000100010001000100010001000100010040
:1008B0000100000001000100010001000100000032
:1008C0000100010001000100010001000100010020
:1008D0000000010001000100010001000100010011
:1008E0000000000000000000000000000000000008
:1008F00000000000000000000000000000000000F8
:1009000000000000000000000000000000000000E7
:1009100000000100010001000100010001000100D0
:1009200001000100010001000100010001000100BF
:1009300000000100000001000100010001000100B1
:1009400001000100010001000000010001000100A0
:10095000010001000100010001000100010001008F
:100960000100010001000000010001000100010080
:100970000100010001000100010000000100010070
:10098000010001000100010001000100010001005F
:100990000100010001000000000001000100010051
:1009A0000100010001000000010001000100000041
:1009B000010001000100010001000100010001002F
:1009C0000100010001000100000000000100010021
:1009D000010001000100010001000100010001000F
:1009E0000000010001000000000000000100000004
:1009F00000000100000001000100010000000100F2
:100A000001000100010000000100000001000100E0
:100A100000000000010001000100010000000100D1
:100A200001000100010001000100010001000000BF
:100A300001000100010001000100010001000100AE
:100A400001000000010001000100010001000000A0
:100A5000010001000100010001000100010001008E
:100A6000000001000100010001000100010001007F
:100A70000000000000000000000000000000000076
:100A80000000000000000000000000000000000066
:100A90000000000000000000000000000000000056
:100AA000000001000100010001000100010001003F
:100AB000010001000100010001000100010001002E
:100AC0000000010000000100010001000100010020
:100AD000010001000100010000000100010001000F
:100AE00001000100010001000100010001000100FE
:100AF00001000100010000000100010001000100EF
:100B000001000100010001000100000001000100DE
:100B100001000100010001000100010001000100CD
:100B200001000100010000000000010001000100BF
:100B300001000100010000000100010001000000AF
:100B4000010001000100010001000100010001009D
:100B5000010001000100010000000000010001008F
:100B6000010001000100010001000100010001007D
:100B70000000010001000000000000000100000072
:100B80000000010000000100010001000000010060
:100B9000010001000100000001000000010001004F
:100BA0000000000001000100010001000000010040
:100BB000010001000100010001000100010000002E
:100BC000010001000100010001000100010001001D
:100BD000010000000100010001000100010000000F
:100BE00001000100010001000100010001000100FD
:100BF00000000100010001000100010001000100EE
:100C000000000000000000000000000000000000E4
:100C100000000000000000000000000000000000D4
:100C200000000000000000000000000000000000C4
:100C300000000100010001000100010001000100AD
:100C4000010001000100010001000100010001009C
:100C5000000001000000010001000100010001008E
:100C6000010001000100010000000100010001007D
:100C7000010001000100010001000100010001006C
:100C8000010001000100000001000100010001005D
:100C9000010001000100010001000000010001004D
:100CA000010001000100010001000100010001003C
:100CB000010001000100000000000100010001002E
:100CC000010001000100000001000100010000001E
:100CD000010001000100010001000100010001000C
:100CE00001000100010001000000000001000100FE
:100CF00001000100010001000100010001000100EC
:100D000000000100010000000000000001000000E0
:100D100000000100000001000100010000000100CE
:100D200001000100010000000100000001000100BD
:100D300000000000010001000100010000000100AE
:100D4000010001000100010001000100010000009C
:100D5000010001000100010001000100010001008B
:100D6000010000000100010001000100010000007D
:100D7000010001000100010001000100010001006B
:100D8000000001000100010001000100010001005C
:100D90000000000000000000000000000000000053
:100DA0000000000000000000000000000000000043
:100DB0000000000000000000000000000000000033
:100DC000000001000100010001000100010001001C
:100DD000010001000100010001000100010001000B
:100DE00000000100000001000100010001000100FD
:100DF00001000100010001000000010001000100EC
:100E000001000100010001000100010001000100DA
:100E100001000100010000000100010001000100CB
:100E200001000100010001000100000001000100BB
:100E300001000100010001000100010001000100AA
:100E4000010001000100000000000100010001009C
:100E5000010001000100000001000100010000008C
:100E6000010001000100010001000100010001007A
:100E7000010001000100010000000000010001006C
:100E8000010001000100010001000100010001005A
:100E9000000001000100000000000000010000004F
:100EA000000001000000010001000100000001003D
:100EB000010001000100000001000000010001002C
:100EC000000000000100010001000100000001001D
:100ED000010001000100010001000100010000000B
:100EE00001000100010001000100010001000100FA
:100EF00001000000010001000100010001000000EC
:100F000001000100010001000100010001000100D9
:100F100000000100010001000100010001000100CA
:100F200000000000000000000000000000000000C1
:100F300000000000000000000000000000000000B1
:100F400000000000000000000000000000000000A1
:100F5000000001000100010001000100010001008A
:100F60000100010001000100010001000100010079
:100F7000000001000000010001000100010001006B
:100F8000010001000100010000000100010001005A
:100F90000100010001000100010001000100010049
:100FA000010001000100000001000100010001003A
:100FB000010001000100010001000000010001002A
:100FC0000100010001000100010001000100010019
:100FD000010001000100000000000100010001000B
:100FE00001000100010000000100010001000000FB
:100FF00001000100010001000100010001000100E9
:1010000001000100010001000000000001000100DA
:1010100001000100010001000100010001000100C8
:1010200000000100010000000000000001000000BD
:1010300000000100000001000100010000000100AB
:10104000010001000100000001000000010001009A
:10105000000000000100010001000100000001008B
:101060000100010001000100010001000100000079
:101070000100010001000100010001000100010068
:10108000010000000100010001000100010000005A
:101090000100010001000100010001000100010048
:1010A0000000010001000100010001000100010039
:1010B0000000000000000000000000000000000030
:1010C0000000000000000000000000000000000020
:1010D0000000000000000000000000000000000010
:1010E00000000100010001000100010001000100F9
:1010F00001000100010001000100010001000100E8
:1011000000000100000001000100010001000100D9
:1011100001000100010001000000010001000100C8
:1011200001000100010001000100010001000100B7
:1011300001000100010000000100010001000100A8
:101140000100010001000100010000000100010098
:101150000100010001000100010001000100010087
:101160000100010001000000000001000100010079
:101170000100010001000000010001000100000069
:101180000100010001000100010001000100010057
:101190000100010001000100000000000100010049
:1011A0000100010001000100010001000100010037
:1011B000000001000100000000000000010000002C
:1011C000000001000000010001000100000001001A
:1011D0000100010001000000010000000100010009
:1011E00000000000010001000100010000000100FA
:1011F00001000100010001000100010001000000E8
:1012000001000100010001000100010001000100D6
:1012100001000000010001000100010001000000C8
:1012200001000100010001000100010001000100B6
:1012300000000100010001000100010001000100A7
:10124000000000000000000000000000000000009E
:10125000000000000000000000000000000000008E
:10126000000000000000000000000000000000007E
:101270000000010001000100010001000100010067
:101280000100010001000100010001000100010056
:101290000000010000000100010001000100010048
:1012A0000100010001000100000001000100010037
:1012B0000100010001000100010001000100010026
:1012C0000100010001000000010001000100010017
:1012D0000100010001000100010000000100010007
:1012E00001000100010001000100010001000100F6
:1012F00001000100010000000000010001000100E8
:1013000001000100010000000100010001000000D7
:1013100001000100010001000100010001000100C5
:1013200001000100010001000000000001000100B7
:1013300001000100010001000100010001000100A5
:10134000000001000100000000000000010000009A
:101350000000010000000100010001000000010088
:101360000100010001000000010000000100010077
:101370000000000001000100010001000000010068
:101380000100010001000100010001000100000056
:101390000100010001000100010001000100010045
:1013A0000100000001000100010001000100000037
:1013B0000100010001000100010001000100010025
:1013C0000000010001000100010001000100010016
:1013D000000000000000000000000000000000000D
:1013E00000000000000000000000000000000000FD
:1013F00000000000000000000000000000000000ED
:1014000000000100010001000100010001000100D5
:1014100001000100010001000100010001000100C4
:1014200000000100000001000100010001000100B6
:1014300001000100010001000000010001000100A5
:101440000100010001000100010001000100010094
:101450000100010001000000010001000100010085
:101460000100010001000100010000000100010075
:101470000100010001000100010001000100010064
:101480000100010001000000000001000100010056
:101490000100010001000000010001000100000046
:1014A0000100010001000100010001000100010034
:1014B0000100010001000100000000000100010026
:1014C0000100010001000100010001000100010014
:1014D0000000010001000000000000000100000009
:1014E00000000100000001000100010000000100F7
:1014F00001000100010000000100000001000100E6
:1015000000000000010001000100010000000100D6
:1015100001000100010001000100010001000000C4
:1015200001000100010001000100010001000100B3
:1015300001000000010001000100010001000000A5
:101540000100010001000100010001000100010093
:101550000000010001000100010001000100010084
:10156000000000000000000000000000000000007B
:10157000000000000000000000000000000000006B
:10158000000000000000000000000000000000005B
:101590000000010001000100010001000100010044
:1015A0000100010001000100010001000100010033
:1015B0000000010000000100010001000100010025
:1015C0000100010001000100000001000100010014
:1015D0000100010001000100010001000100010003
:1015E00001000100010000000100010001000100F4
:1015F00001000100010001000100000001000100E4
:1016000001000100010001000100010001000100D2
:1016100001000100010000000000010001000100C4
:1016200001000100010000000100010001000000B4
:1016300001000100010001000100010001000100A2
:101640000100010001000100000000000100010094
:101650000100010001000100010001000100010082
:101660000000010001000000000000000100000077
:101670000000010000000100010001000000010065
:101680000100010001000000010000000100010054
:101690000000000001000100010001000000010045
:1016A0000100010001000100010001000100000033
:1016B0000100010001000100010001000100010022
:1016C0000100000001000100010001000100000014
:1016D0000100010001000100010001000100010002
:1016E00000000100010001000100010001000100F3
:1016F00000000000000000000000000000000000EA
:1017000000000000000000000000000000000000D9
:1017100000000000000000000000000000000000C9
:1017200000000100010001000100010001000100B2
:1017300001000100010001000100010001000100A1
:101740000000010000000100010001000100010093
:101750000100010001000100000001000100010082
:101760000100010001000100010001000100010071
:101770000100010001000000010001000100010062
:101780000100010001000100010000000100010052
:101790000100010001000100010001000100010041
:1017A0000100010001000000000001000100010033
:1017B0000100010001000000010001000100000023
:1017C0000100010001000100010001000100010011
:1017D0000100010001000100000000000100010003
:1017E00001000100010001000100010001000100F1
:1017F00000000100010000000000000001000000E6
:1018000000000100000001000100010000000100D3
:1018100001000100010000000100000001000100C2
:1018200000000000010001000100010000000100B3
:1018300001000100010001000100010001000000A1
:101840000100010001000100010001000100010090
:101850000100000001000100010001000100000082
:101860000100010001000100010001000100010070
:101870000000010001000100010001000100010061
:101880000000000000000000000000000000000058
:101890000000000000000000000000000000000048
:1018A0000000000000000000000000000000000038
:1018B0000000010001000100010001000100010021
:1018C0000100010001000100010001000100010010
:1018D0000000010000000100010001000100010002
:1018E00001000100010001000000010001000100F1
:1018F00001000100010001000100010001000100E0
:1019000001000100010000000100010001000100D0
:1019100001000100010001000100000001000100C0
:1019200001000100010001000100010001000100AF
:1019300001000100010000000000010001000100A1
:101940000100010001000000010001000100000091
:10195000010001000100010001000100010001007F
:101960000100010001000100000000000100010071
:10197000010001000100010001000100010001005F
:101980000000010001000000000000000100000054
:101990000000010000000100010001000000010042
:1019A00001000100010000000100000012036B00B3
:1019B0006500790062006F00610072006400000041
:1019C000160371006D006B006200750069006C0009
:1019D00064006500720000000403090409026D0040
:1019E000040100A0FA09040000010301010009211B
:1019F000110100012240000705810308000A0904C3
:101A000001000103010200092111010001224D0022
:101A10000705820308000A09040200010300000010
:101A20000921110100012236000705830308000A7D
:101A30000904030001030000000921110100012233
:101A40003900070584032000011201100100000085
:101A500008EDFE606001000102000105010906A118
:101A600001050719E029E715002501950875018191
:101A70000205081901290595057501910295017561
:101A80000391010507190029F71500250195F8753F
:101A9000018102C005010980A1018502160100260D
:101AA00003001A81002A8300751095018100C0058A
:101AB0000C0901A1018503160100269C021A0100F0
:101AC0002A9C02751095018100C005010902A1013F
:101AD0000901A10005091901290515002501950530
:101AE00075018102950175038101050109300931F4
:101AF0001581257F95027508810609381581257F96
:101B0000950175088106050C0A38021581257F9517
:101B10000175088106C0C005010906A10105071964
:101B2000E029E715002501950875018102950175E9
:101B3000088101050819012905950575019102958E
:101B400001750391010507190029FF150026FF0003
:101B5000950675088100C00011241FBECFEFDAE0A2
:101B6000DEBFCDBF04B603FE27C08091E70290918F
:101B7000E802A091E902B091EA028730904BA740B9
:101B8000B04BD1F41092E7021092E8021092E902F1
:101B90001092EA0214BE84B7877F84BF0FB6F89410
:101BA000A895809160008861809360001092600029
:101BB0000FBEE0E0F8E3099511E0A0E0B1E0E6E84F
:101BC000F8E502C005900D92A834B107D9F722E0DC
:101BD000A8E4B1E001C01D92A73EB207E1F70E9460
:101BE0007B250C94412C0C94000090E080E008953B
:101BF0000895089581E00895089581E008950C9472
:101C0000FA0D0E9410182FEF84E39CE021508040D1
:101C10009040E1F700C000000C942620FF920F9343
:101C20001F93CF93DF938C01FC01C081D181809100
:101C3000C40181113FC082818823B9F1CE010E9485
:101C4000771DF82E682FCE010E941D1DBE018F2D1D
:101C50000E94550FEC01B8010E94FF0D882309F482
:101C60004AC0B801CE010E946511882309F443C01F
:101C7000C531F0E7DF0718F5C23080E7D80708F074
:101C80004BC0C115E0E7DE0789F1C130D047D1F183
:101C900081E080934A0180934B01C801DF91CF918D
:101CA0001F910F91FF900C94FD0DCE010E944C1DD1
:101CB000F82ECCCFCE010E94771DBE01C9CFCC3308
:101CC00080E7D80709F4ACC0CD33D04709F7F80155
:101CD0008281882309F4CBC010924B010E94CB1F54
:101CE000909349018093480180E2A7C0F801828166
:101CF00081110E94010E80E0DF91CF911F910F9121
:101D0000FF900895F80182818823A9F38091A702AA
:101D100081608093A702EFCFF8018281882309F4C4
:101D2000BCCF0E94281F811102C00E940E1F0E947A
:101D3000451F90E09093D9028093D802FE01E350B2
:101D4000F0478091D8028160E231F105C8F4E55591
:101D5000F14F0C94F12BBD0EC90ECD0ED10ED50E48
:101D6000D90EDD0EE10EE50EE90EED0EF10EF50ECB
:101D7000F90EFD0E010F050F090F8091D802826048
:101D80008093D8028091D8020E94491F0E941018A7
:101D9000B2CF8091D8028460F3CF8091D80288605E
:101DA000EFCF8091D8028061EBCF8091D802806222
:101DB000E7CF8091D8028064E3CF8091D802806819
:101DC000DFCF8091D8028460EACF8091D8028E7FE5
:101DD000D7CF8091D8028D7FD3CF8091D8028B7FCF
:101DE000CFCF8091D802877FCBCF8091D8028F7ED2
:101DF000C7CF8091D8028F7DC3CF8091D8028F7BCF
:101E0000BFCF8091D8028F77BBCF8091D8028B7FD4
:101E1000EACF9091D802892F97FB87F98058B0CFED
:101E2000F8018281882361F010924A010E94CB1F41
:101E3000909349018093480182E00E949A155BCFFC
:101E400080914A0181110FC0809148019091490110
:101E50000E94D71F883C910530F486E20E946F14DF
:101E600086E20E944B1582E00E94A11544CF80912A
:101E70004B0181110FC080914801909149010E944E
:101E8000D71F883C910530F487E20E946F1487E2E7
:101E90000E944B1580E2E8CF0C94B4110C94B6115B
:101EA0000C94FC0D0C94500F0895972F70E029E1CD
:101EB000929F600D711D1124FB0198EC899FE00D2C
:101EC000F11D1124EE0FFF1FE455FF4F85919491F2
:101ED0000895FC01EE0FFF1FE455F64E8591949195
:101EE00008950E94550F0E94E410811520E4920786
:101EF00008F08DC0811540E3940708F0E8C0803EEB
:101F0000910508F071C0803C910508F0CCC0883A7A
:101F1000910580F4853A910508F0CAC08130910599
:101F200009F46EC020F08430910508F069C090E09B
:101F300080E008958D3B9105D0F7883A910509F42A
:101F400004C1893A910509F403C18A3A910509F45B
:101F500002C18B3A910509F401C18C3A910509F44B
:101F600000C18B3B910509F4FFC08C3B910509F43E
:101F7000FEC08D3A910509F4FDC0803B910509F43E
:101F8000FCC08E3A910509F4FBC08F3A910509F423
:101F9000FAC0813B910509F4F9C0823B910509F42F
:101FA000F8C0833B910509F4F7C0843B910509F41F
:101FB000F6C0853B910509F4F5C0863B910509F40F
:101FC000F4C0873B910509F4F3C0883B910509F4FF
:101FD000F2C0893B910509F4F1C08A3B910509F4EF
:101FE000F0C080E094E408958F3F910509F048F433
:101FF000803F910508F067C0883E910508F097CFB3
:102000000895811520E2920708F05FC008958115B8
:1020100043E5940760F5811522E5920708F062C058
:10202000811541E5940708F058C0811520E5920715
:1020300008F450C09C0154E0369527955A95E1F775
:10204000922F9370482F437021E030E002C0220F9E
:10205000331F4A95E2F73C68392B86958695837045
:1020600040E2849FC0011124822B932B0895811597
:1020700045E5940750F4811524E5920708F446C01D
:10208000982F8827846F906A0895811546E59407F4
:1020900008F450C09C0130569F702115304108F063
:1020A00046CF90620895805C91090E94690F08955F
:1020B000853A910509F443C0863A910509F042C07A
:1020C00082E890E40895906508959F70EECF992777
:1020D000906C08959F70906A0895982F8827816F5B
:1020E000906A0895AC014370552721E030E002C0AA
:1020F000220F331F4A95E2F78695869540E2849F2A
:10210000C0011124822B932B9C680895AC0143706D
:10211000552721E030E002C0220F331F4A95E2F735
:102120008695869540E2849FC0011124822B932BD3
:102130009A680895982F882788279F71B2CF81E8E1
:1021400090E4089583E890E4089582EE94E408957D
:1021500089EE94E408958AEE94E4089585EB94E47E
:10216000089586EB94E4089583EB94E4089584EB5A
:1021700094E4089587EB94E408958CEC94E4089536
:102180008DEC94E4089583E895E408958AE895E455
:10219000089582E995E4089584E995E4089581E23B
:1021A00096E4089583E296E4089584E296E408951F
:1021B00085E296E4089586E296E4089587E296E43F
:1021C00008958AE296E41CCF8238910549F1B0F473
:1021D0008133910509F45CC048F48932910509F412
:1021E00052C08A32910509F458C00895853391058B
:1021F00009F444C08933910599F00895833E91050F
:1022000031F138F4803E910591F0823E9105B1F0B4
:102210000895863E910511F1873E910541F108959B
:102220002091D8022370C9F080EE90E008952091AB
:10223000D80220FF12C089E390E008952091D802CF
:1022400022FF0BC024FF2EC090E080E00895209173
:10225000D80222FD2AC024FDF7CF08952091D8028C
:1022600023FFFBCF24FDF0CF87EE90E0089520916F
:10227000D80223FFF0CF86EE90E008952091D80297
:1022800025FD16C008952091D80225FD14C008959B
:102290002091D80226FD12C008952091D80226FD73
:1022A00010C0089583EE90E0089582EE90E00895C6
:1022B00089E290E0089585E390E008958AE290E055
:1022C000089581E390E0C9CF08950F931F93CF93B2
:1022D0008C01FB018281811106C0C1E08C2FCF915E
:1022E0001F910F910895C0915901C11125C0053169
:1022F000104799F70E94641181E0809359010E9470
:10230000CB1F909358018093570110924C0110926B
:102310004E0110924D011092500110924F011092F7
:1023200052011092510110925401109253011092D7
:10233000560110925501D2CF8091570190915801CA
:102340000E94D71F883C910540F680914C01E82FF0
:10235000F0E0EE0FFF1FE35BFE4F118300838F5F02
:1023600080934C01C0E0BACF0C94F80D0C94F90D99
:1023700085B7806885BF85B7806885BFACE2B1E06E
:1023800061E070E08D91E82FE295EF70F0E041A1FF
:102390008F709B0101C0220F8A95EAF7922F9095CA
:1023A000942391A382A1822B82A381E0A433B80756
:1023B00049F7A3E1B1E061E070E08D91E82FE2958B
:1023C000EF70F0E041A18F709B0101C0220F8A9550
:1023D000EAF7922F9095942391A382A1822B82A356
:1023E00081E0AC32B80749F7EAE7F1E0AAE5B1E0ED
:1023F0008AE991E011921192119211921D921D920F
:102400001D921D928E179F07A9F70C944C0F2F92C7
:102410003F924F925F926F927F928F929F92AF9274
:10242000BF92CF92DF92EF92FF920F931F93CF93C1
:10243000DF93CDB7DEB72C970FB6F894DEBF0FBE93
:10244000CDBF8AE5882E81E0982E2CE231E03A83D8
:10245000298398868F8222242394312CC12CD12C5D
:102460007601C394AA24A394AF81B8854D905D9062
:102470006D907C901397FD0110821182128213825D
:10248000A981BA818D91BA83A983E82FE295EF7073
:10249000F0E091A18F70910102C0220F331F8A9545
:1024A000E2F73C832B83822F892B81A382A1B22E5A
:1024B000B0948B2182A330EA3A95F1F743E151E0E1
:1024C0005E834D8390E080E0AD81BE813D91BE830F
:1024D000AD83A32FA295AF70B0E090960C91AF8121
:1024E000B8854D915D916D917C9149875A876B8735
:1024F0007C873F70A10102C0440F551F3A95E2F757
:102500009A01202309F081C0B701A601082E04C05A
:10251000440F551F661F771F0A94D2F78A019B014B
:1025200049855A856B857C85402B512B622B732BFB
:10253000AF81B8854D935D936D937C93139701960E
:102540008931910509F0C0CF81A1B822B1A282A141
:10255000BB818B2B82A3EF81F88580819181A28141
:10256000B381481659066A067B0641F0A0929A018B
:102570000E94CB1F90939C0180939B012F813885F3
:102580002C5F3F4F38872F8349815A8144535140F4
:1025900009F06ACF80919A018823D9F080919B013C
:1025A00090919C010E94D71F069798F0EAE7F1E00E
:1025B0008AE791E0D4014D915D916D917D914D013E
:1025C00041935193619371938A179B0799F71092E6
:1025D0009A010E944E0F81E02C960FB6F894DEBF50
:1025E0000FBECDBFDF91CF911F910F91FF90EF9064
:1025F000DF90CF90BF90AF909F908F907F906F9023
:102600005F904F903F902F90089500E010E0980168
:1026100087CF94E0899FF0011124E658FE4F608136
:10262000718182819381089508959093A20180938E
:10263000A1010895E091A101F091A201309721F04C
:102640000190F081E02D099480E00895E091A101CE
:10265000F091A201309721F00280F381E02D0994DE
:102660000895E091A101F091A201309721F004803A
:10267000F581E02D0994089520919F013091A001EA
:102680002817390771F09093A00180939F01E09182
:10269000A101F091A201309721F00680F781E02D91
:1026A0000994089520919D0130919E0128173907C2
:1026B00071F090939E0180939D01E091A101F091B2
:1026C000A201309721F00084F185E02D099408954E
:1026D00008950C9468130E94C21F0E94B8110C94B4
:1026E00092204F925F926F927F928F929F92AF92C1
:1026F000BF92DF92EF92FF920F931F93CF93DF93DE
:10270000CDB7DEB72A970FB6F894DEBF0FBECDBFA8
:102710000E94071224EAE22E21E0F22E10E000E0EF
:10272000D02E802F0E9409134B015C01F7014190CC
:102730005190619071907F01481459046A047B04A0
:1027400009F476C08091A70281FD0E94141390E0E5
:1027500080E0482459246A247B24B301A201082E76
:1027600004C076956795579547950A94D2F740FF30
:102770005AC08E83DF82412C512C3201439404C015
:10278000440C551C661C771C8A95D2F78420952032
:10279000A620B72081E089288A288B2809F480E0C8
:1027A00088870E94CB1F8160782F9A8789874E8106
:1027B0005F8168858A850E944514000F111F000FF4
:1027C000111FF801EC55FE4F80819181A281B381E8
:1027D00084259525A625B72580839183A283B3837D
:1027E0000E9415230E941A139091A3018917B9F131
:1027F0000E941A138093A3012A960FB6F894DEBFA5
:102800000FBECDBFDF91CF911F910F91FF90EF9041
:10281000DF90BF90AF909F908F907F906F905F9070
:102820004F900C94520F01968931910509F095CF84
:102830000F5F1F4F0830110509F072CF8FEF8983AA
:102840008A831B820E94CB1F8160782F9D838C839B
:1028500049815A816B818D810E944514C1CF2A968E
:102860000FB6F894DEBF0FBECDBFDF91CF911F91A1
:102870000F91FF90EF90DF90BF90AF909F908F905F
:102880007F906F905F904F900895CF93DF93CDB777
:10289000DEB72B970FB6F894DEBF0FBECDBF4F83C8
:1028A000588769877A878B871E821D8285E0FE01A3
:1028B0003796DE01119601900D928A95E1F74981D4
:1028C0005A816B817C818D819E812B960FB6F89405
:1028D000DEBF0FBECDBFDF91CF910C94C21A88230B
:1028E00009F4D8C0823871F40E941A1381FDD2C055
:1028F00089E30E94171E0E94DF1E89E30E94541E76
:102900000C94DF1E833859F40E941A1380FDC2C054
:1029100083E50E94171E0E94DF1E83E5EFCF8438F7
:1029200059F40E941A1382FDB5C087E40E94171E55
:102930000E94DF1E87E4E2CF9CEF980F913A18F4D3
:102940000E94171EDDCF90E2980F983050F48770E8
:1029500091E001C0990F8A95EAF7892F0E94961E8F
:10296000CFCF9BE5980F933070F4853A31F0863ADB
:1029700039F083E890E00C943C1381E890E0FBCFC1
:1029800082E890E0F8CF98E5980F953108F082C082
:10299000883A09F440C0893A09F440C08A3A09F4F7
:1029A00040C08B3A09F440C08C3A09F440C08B3BDC
:1029B00009F440C08C3B09F440C08D3A09F440C092
:1029C000803B09F440C08E3A09F440C08F3A09F4C4
:1029D00040C0813B09F440C0823B09F440C0833BC6
:1029E00009F440C0843B09F440C0853B09F440C071
:1029F000863B09F440C0873B09F440C0883B09F49A
:102A000040C0893B09F440C08A3B09F440C090E0D3
:102A100080E00C94521382EE90E0FBCF89EE90E0C0
:102A2000F8CF8AEE90E0F5CF85EB90E0F2CF86EB21
:102A300090E0EFCF83EB90E0ECCF84EB90E0E9CF38
:102A400087EB90E0E6CF8CEC90E0E3CF8DEC90E06C
:102A5000E0CF83E891E0DDCF8AE891E0DACF82E948
:102A600091E0D7CF84E991E0D4CF81E292E0D1CF59
:102A700083E292E0CECF84E292E0CBCF85E292E097
:102A8000C8CF86E292E0C5CF87E292E0C2CF8AE269
:102A900092E0BFCF0895882309F44BC0823871F4C7
:102AA0000E941A1381FF45C089E30E94171E0E94ED
:102AB000DF1E89E30E94541E0C94DF1E833859F4F4
:102AC0000E941A1380FF35C083E50E94171E0E94E2
:102AD000DF1E83E5EFCF843859F40E941A1382FF7A
:102AE00028C087E40E94171E0E94DF1E87E4E2CF01
:102AF0009CEF980F913AF0F290E2980F983050F4D2
:102B0000877091E001C0990F8A95EAF7892F0E949A
:102B10009C1ED2CF9BE5980F933020F490E080E08C
:102B20000C943C13885A853120F490E080E00C949A
:102B300052130895882321F00E94961E0C94DF1EE4
:102B40000895882321F00E949C1E0C94DF1E089596
:102B50008F929F92AF92BF92DF92EF92FF920F936C
:102B60001F93CF93DF937C01D62FC72FFC010581E4
:102B700002950F70128111110E94B51E0E94101E45
:102B8000D82E882371F0112321F180E28D0F883037
:102B900000F182E00E94FA1D0E94101E91E0D82EE2
:102BA000D926EC2FE295EF70F0E0E752FA4E0C9444
:102BB000F12BEB15EB153B163B167D1699161816E7
:102BC0001816A41618163C173C17AF171816181627
:102BD000B817D12CE6CF0C2F0F70C07F11F00295E3
:102BE000007F1123A9F0002359F080E28D0F883077
:102BF00010F0D11109C0802F0E94961E0E94DF1E86
:102C00008D2F0E946F1414C0802F0E94A71EF6CF34
:102C10008D2F0E944B15002359F080E28D0F8830D4
:102C200010F0D11124C0802F0E949C1E0E94DF1E34
:102C3000DD2009F4A4C10E94ED1D80FDA0C1F701B3
:102C400012820E94E71D0E94611CC7010E94CB17DF
:102C50000E94E71DDF91CF911F910F91FF90EF90A0
:102C6000DF90BF90AF909F908F900C94821C802F2C
:102C70000E94AD1EDBCFFC2FFF70BF2EC07FC03285
:102C800019F0B29480EFB822DD2369F0D13029F138
:102C9000112369F1002359F0F701858180FFB0CF3E
:102CA0008F70858304C0112361F0011104C08B2D46
:102CB0000E949A15BDCF8B2D0130D1F70E94C91EFD
:102CC000B7CF011106C00E94CC1E8B2D0E94A1150A
:102CD000AFCF013009F4ACCFF6CF112321F006308D
:102CE00008F0A6CFE4CF053008F0A2CFEECF002346
:102CF00061F38D2F0E944B159BCF8C2F8695869567
:102D0000837069F0813009F093CF8D2F9C2F9370E1
:102D1000111102C090E080E00E94521389CF8D2FE4
:102D20009C2F9370111102C090E080E00E943C1330
:102D30007FCF8D2F112329F00E941E220E940A238B
:102D400077CF0E948622FACF8C2F837009F047C07C
:102D500011116ECF2D2F229526952770220F220F4D
:102D60006D2F6F70862E912CB12CA12C022E04C0D9
:102D7000880C991CAA1CBB1C0A94D2F760E070E076
:102D8000CB01D4FF0FC06FE070E080E090E004C0A2
:102D9000660F771F881F991F2A95D2F76095709547
:102DA00080959095C695C695C370C23051F080F459
:102DB000682979298A299B29C13071F00E940A1C4F
:102DC00037CF682979298A299B290E94261C30CF70
:102DD0000E940A1CC501B4010E94EE1B29CF8695F2
:102DE000112311F08C2F8170882309F421CF2D2F0E
:102DF000229526952770220F220F6D2F6F70862E39
:102E0000912CB12CA12C022E04C0880C991CAA1C58
:102E1000BB1C0A94D2F760E070E0CB01D4FF0FC076
:102E20006FE070E080E090E004C0660F771F881FBD
:102E3000991F2A95D2F76095709580959095C695C3
:102E4000C695C370C23051F080F4682979298A2967
:102E50009B29C13071F00E94E41CEACE68297929CF
:102E60008A299B290E94001DE3CE0E94E41CC50113
:102E7000B4010E94C81CDCCEE0E2ED0FE53108F0A1
:102E800062C0F0E0EA5BF84E0C94F12B5B175B1725
:102E90005B175B175B175B175B175B175B175B17A2
:102EA0005B175B175B175B175B175B17681776176A
:102EB0007D1784178E17DF708C2F8F71112321F0EF
:102EC0000E94611C8D2FF4CE0E94821C8D2FFECE9D
:102ED000112341F0053008F0ABCE8C2F8F710E948A
:102EE000A71CA6CE063008F0A3CEF7CF8C2F8F718B
:102EF000112339F00E94611C9BCE8C2F8F711123FE
:102F0000C9F30E94821C94CE112329F08C2F8F715B
:102F10000E944C1C8DCE0E94421C8ACE112349F087
:102F2000CF718C2F0E94611C63E08C2F0E94F11DD9
:102F30007FCE81E00E94FA1D023008F479CE82E053
:102F40000E94FA1D75CE112329F0011159CE8C2F44
:102F50008F71D0CF0111CDCE8C2F8F71D2CF4C2F4E
:102F60004F706D2FC7010E94F50D0E946B1B60CE44
:102F70004C2F4F706D2FC7010E94540F59CEDF9117
:102F8000CF911F910F91FF90EF90DF90BF90AF9086
:102F90009F908F9008950F931F93CF93DF93EC0131
:102FA000988189812B813C81232B39F08F3F19F443
:102FB00081E09F3F19F080E001C081E080FD17C0F3
:102FC000CE010E940E0E882391F0688179818A815A
:102FD0000E94C31D8C010E941C1D0E94E31BB801AE
:102FE000CE01DF91CF911F910F910C94A815DF9125
:102FF000CF911F910F9108950E94B51E0E94C61E89
:103000000E94881E0E94DF1E0E94B7230E940A238E
:1030100090E080E00E943C1390E080E00C9452131A
:103020000E94A41E0C94FC170E94B91DE92FE29582
:10303000EF70E250EE30E0F4F0E0EF5DF74E0C940C
:10304000F12B2F182F18381838183A183818381844
:1030500038182F182F183F18381838183F18803F85
:1030600019F020F4803E20F481E00895843FE1F3DC
:1030700080E00895803EC0F3813FD1F7F5CF93FB08
:10308000882780F90895CF93DF9300D000D01F9256
:10309000CDB7DEB70F900F900F900F900F90DF918C
:1030A000CF910895CF93DF9300D000D000D0CDB75B
:1030B000DEB726960FB6F894DEBF0FBECDBFDF9108
:1030C000CF9108951F93CF93DF93C091C50116E070
:1030D0008091C6018C1304C0DF91CF911F91089598
:1030E000D0E01C9FF0011D9FF00D1124E953FE4F0D
:1030F0004081518162817381848195810E9452183F
:103100002196C770E5CF4091F7015091F801609189
:10311000F9017091FA018091FB019091FC010C94EE
:1031200052181F93CF93DF938091FC01807FD1F4DD
:103130008091F9018823B1F08091C501D091C60139
:10314000B091F701C091F8014091FA015091FB0153
:10315000A1E0BF3F09F0A0E0BA016095709516E0CC
:10316000D81304C0DF91CF911F91089521E041153C
:10317000510521F02A2FCF3F09F020E090E020FDFB
:1031800038C0189FF001199FF00D1124E953FE4F2C
:1031900021812C132EC020812B132BC022812111C1
:1031A00028C0238134812417350700F1241B350BF7
:1031B000283C3105F0F42091FC012F702061209310
:1031C000FC0126E0289FF001299FF00D1124E45313
:1031D000FE4F80818F708061808387EF91E00E9435
:1031E000CB17DF91CF911F910C946218260F371FD8
:1031F000DFCF01968770B4CFAF92BF92CF92DF92AC
:10320000EF92FF920F931F93CF93DF93CDB7DEB76B
:1032100061970FB6F894DEBF0FBECDBF8C0185E07D
:10322000F801DE011D9601900D928A95E1F7D80113
:103230004C9111965C9111971296EC903091F70198
:103240006091F8018091FA019091FB0121E00097D3
:1032500031F06F3F19F421E03F3F09F020E0B22F39
:10326000B170BB2E20FD80C1F801C380D480A09036
:10327000F901AA2009F427C1C816D906D0F1D60150
:10328000A81BB90BCD01FF24F394883C910508F0ED
:10329000F12C8091FC01982F907FFF2009F4CAC087
:1032A000911187C0FE2C651329C0341327C0E1108B
:1032B00025C08F7080618093FC010E94831887EF86
:1032C00091E00E94CB178091FC01F80185838F2D3E
:1032D00061960FB6F894DEBF0FBECDBFDF91CF91E0
:1032E0001F910F91FF90EF90DF90CF90BF90AF9024
:1032F0000895809590958C0D9D1DC5CF81E0CD28BA
:1033000031F05F3F19F481E04F3F09F080E080FD2C
:1033100024C081E08E25F82FF170DF2E80FF3FC0A2
:103320008091C5012091C60136E0821318C04D87F7
:103330005E878D859E850E94B91D292F22952F704D
:10334000223008F1243030F59F7009F1D80115962C
:103350009C91907FE1F4FB2CBACF80E0DCCF90E031
:10336000389FF001399FF00D1124E953FE4F618120
:10337000561306C06081461303C062816E110FC0F0
:1033800001968770D2CF9F7011F0882321F3805E61
:10339000883008F3C8010E94CB17BD2CDCCFEE208B
:1033A00009F495CF8091FC0181608093FC01F12CA0
:1033B0008ECF651312C0341310C0E1100EC0F80197
:1033C0008583C8010E94CB1786E0F801A7EFB1E022
:1033D00001900D928A95E1F741C04D875E878D85FA
:1033E0009E850E941418882309F4C8C0EE2009F4B1
:1033F000C5C08091FC01803270F02091F7013091BE
:10340000F80138872F831986DB86CA868C87CE0120
:1034100007960E94CB1786E0F801A7EFB1E0019074
:103420000D928A95E1F70E9491180E948318FF245B
:10343000F3944DCF911115C07C2DD98AC88A6E2D79
:1034400089890E94431887EF91E00E94CB1786E09C
:10345000E7EFF1E0DF011D928A95E9F70E948318FA
:1034600036CF651312C0341310C0E1100EC0F8013E
:103470008583C8010E94CB17E7EFF1E086E0DF010A
:103480001D928A95E9F7FA2C22CF4D875E878D85AC
:103490009E850E941418882309F470C0EE2009F458
:1034A0006DC08091FC01803208F4B5CF2091F70106
:1034B0003091F8013A8329831B82DD82CC828E838E
:1034C000CE010196A6CFC816D90638F1F601E81B41
:1034D000F90BCF01F12C883C910508F03DC0FE2C82
:1034E000EE2009F44BC0651326C0341324C080912C
:1034F000FC0180FD17C0982F907FA1F0D801159690
:103500008C931597903F09F45CCF982F907F905F34
:103510008F70892B15968C9354CF809590958C0D38
:103520009D1DD8CF86E0F801A7EFB1E001900D9284
:103530008A95E1F7CCCE4D875E878D859E850E946A
:103540001418811168CF8091FC0181608093FC0187
:10355000C8010E94CB17BBCE7C2DD98AC88A6E2D9C
:1035600089890E94431873CFEE2041F04D875E8712
:103570008D859E850E94141881114DCFC8010E942F
:10358000CB1755CF1F93CF93DF93CDB7DEB72C97D3
:103590000FB6F894DEBF0FBECDBF4F835887698743
:1035A0007A878B879C87CE0107960E94FC18882318
:1035B00009F442C09F8188852A853B85232B39F0F9
:1035C0008F3F19F481E09F3F19F080E001C081E056
:1035D00080FD08C04F81588569857A858B859C85DB
:1035E0000E94521816E08091C5019091C60189177A
:1035F00009F467C0819FC001112489539E4F0E9426
:10360000FC18882309F45DC0E091C5011E9FF001FC
:103610001124E953FE4F408151816281738184817D
:1036200095810E9452188091C50190E001968770A3
:1036300099278093C501D7CF86E0FE013796DE013A
:10364000119601900D928A95E1F79F8188852A85D0
:103650003B85232B39F08F3F19F481E09F3F19F010
:1036600080E001C081E080FDBDCF2091C60130E047
:10367000C9010196877099274091C501481719061D
:1036800099F096E0929FD001939FB00D1124A95319
:10369000BE4FFE01319601900D929A95E1F780930D
:1036A000C6010E9462189ECF0E9410181092C60197
:1036B0001092C50186E0E7EFF1E0DF011D928A95E7
:1036C000E9F72C960FB6F894DEBF0FBECDBFDF91A1
:1036D000CF911F910895EF92FF920F931F93CF9375
:1036E000DF938C01892B81F0F12CEE24E394E80127
:1036F0002196F8018491843770F4843008F05FC01B
:103700008130B1F08230A1F1DF91CF911F910F9103
:10371000FF90EF900895853709F44CC008F43DC040
:103720009CE7980F903780F78F770E944B1549C020
:103730000E5F1F4FFE01849190E2980F983060F465
:103740008770FE2D01C0FF0F8A95EAF78F2F0E9428
:10375000B81E0E94DF1E02C00E946F148F2D815080
:1037600030F2EFE9FFE03197F1F700C00000F7CF4A
:103770000E5F1F4FFE01849190E2980F983050F435
:103780008770FE2D01C0FF0F8A95EAF78F2F0E94E8
:10379000BE1EDFCF0E944B15E1CF0E5F1F4FFE0113
:1037A000C491C150D8F28FE99FE00197F1F700C0B2
:1037B0000000F7CF0E5F1F4FFE01F490CFCF0E94A5
:1037C0006F148E01CBCF089560937E0270937F02B9
:1037D00080938002909381020C94FC170F931F93A7
:1037E00000917E0210917F0220918002309181022F
:1037F000DC01CB01802B912BA22BB32B80937E027B
:1038000090937F02A0938002B09381021F910F9149
:103810000C94FC170F931F9300917E0210917F026E
:103820002091800230918102DC01CB018023912321
:10383000A223B32380937E0290937F02A093800201
:10384000B09381021F910F910C94FC170F931F935B
:1038500000917E0210917F022091800230918102BE
:10386000DC01CB0180279127A227B32780937E021A
:1038700090937F02A0938002B09381021F910F91D9
:103880000C94FC1710927A0210927B0210927C0228
:1038900010927D020C94FC1741E050E060E070E073
:1038A00004C0440F551F661F771F8A95D2F74093B7
:1038B0007A0250937B0260937C0270937D020C9499
:1038C000FC1741E050E060E070E004C0440F551F79
:1038D000661F771F8A95D2F780917A0290917B02BA
:1038E000A0917C02B0917D02842B952BA62BB72B47
:1038F00080937A0290937B02A0937C02B0937D0226
:103900000C94FC1741E050E060E070E004C0440F0C
:10391000551F661F771F8A95D2F740955095609581
:10392000709580917A0290917B02A0917C02B09177
:103930007D0284239523A623B72380937A02909354
:103940007B02A0937C02B0937D020C94FC1741E0B3
:1039500050E060E070E004C0440F551F661F771F01
:103960008A95D2F780917A0290917B02A0917C0295
:10397000B0917D0284279527A627B72780937A02E6
:1039800090937B02A0937C02B0937D020C94FC1771
:103990000F931F9300917A0210917B0220917C0279
:1039A00030917D02DC01CB01802B912BA22BB32B1C
:1039B00080937A0290937B02A0937C02B0937D0265
:1039C0001F910F910C94FC170F931F9300917A0293
:1039D00010917B0220917C0230917D02DC01CB01B1
:1039E00080239123A223B32380937A0290937B02B6
:1039F000A0937C02B0937D021F910F910C94FC1751
:103A00000F931F9300917A0210917B0220917C0208
:103A100030917D02DC01CB0180279127A227B327BB
:103A200080937A0290937B02A0937C02B0937D02F4
:103A30001F910F910C94FC17089529E1929F800D1E
:103A40001124982F977071E001C0770F9A95EAF7CB
:103A500086958695869525E0829FC001112450E0C9
:103A600040E0A62FB0E0FC01E40FF51FE350FE4F4D
:103A700060819D01042E02C0369527950A94E2F7D5
:103A80002170219526272723262720834F5F5F4F0C
:103A90004530510541F7089529E1929F800D112489
:103AA000982F977086958695869525E0829FA00130
:103AB000112470E060E080E0FA01E60FF71FE350A8
:103AC000FE4F208130E0092E02C0369527950A94DA
:103AD000E2F721703327062E01C0220F0A94EAF77D
:103AE000822B6F5F7F4F6530710531F70895BF926C
:103AF000CF92DF92EF92FF920F931F93CF93DF93BA
:103B00008C01C0907A02D0907B02E0907C02F09011
:103B10007D0280917E0290917F02A0918002B091FF
:103B20008102C82AD92AEA2AFB2ACFE1D0E0BC2E9A
:103B3000D701C6010C2E04C0B695A7959795879519
:103B40000A94D2F780FD0EC0219788F7B12C8B2DF7
:103B5000DF91CF911F910F91FF90EF90DF90CF9069
:103B6000BF900895B8018C2F0E94710F019761F3E7
:103B7000EECFCF93DF93EC010E94771DBE01DF9162
:103B8000CF910C94710F1F93CF93DF93EB01909122
:103B9000C401992331F0CB01DF91CF911F910C9497
:103BA000B91D882379F0CB010E94771D182F682F4B
:103BB000CE010E941D1DBE01812FDF91CF911F916B
:103BC0000C94710FCB010E944C1D182FF4CF8091E3
:103BD00082028595859585950895809182028770EA
:103BE000089598E0899F90011124622B60938202CE
:103BF0000C94611C909182028095892380938202AB
:103C0000282F277061F4282F082E000C330B9217F1
:103C1000130629F08595859585950C94821C089549
:103C200090918202977081E009F480E0089590916C
:103C300012019923E1F09091D80297FF18C0E82F64
:103C4000E695E695E695EF3139F120910001309146
:103C50000101E20FF32FF11D877021E030E001C078
:103C6000220F8A95EAF78181822B81830895209122
:103C7000000130910101F90132969FEF40E051912E
:103C8000851751F09F3F19F4511101C0942F4F5FD8
:103C90004E31A9F79F3F09F40895290F311D97FD73
:103CA0003A95F90182830895909112019923F1F0D8
:103CB0009091D80297FF1AC0E82FE695E695E69511
:103CC000EF3129F12091000130910101E20FF32F32
:103CD000F11D282F277081E090E001C0880F2A9500
:103CE000EAF78095918189238183089520910001CD
:103CF00030910101F9013296205E3F4F9191891375
:103D000003C0DF0111971C92E217F307B9F708957A
:103D100081E090E0E0910001F0910101E80FF91FCE
:103D20001082019680329105A9F708959091A6021C
:103D3000892B8093A6020895982F90958091A602D2
:103D400089238093A60208951092A6020895909167
:103D5000A502892B8093A5020895982F90958091B4
:103D6000A50289238093A50208951092A5020895C3
:103D70009091A402892B8093A4020895982F909586
:103D80008091A40289238093A40208951092A40232
:103D900008958093830208951092830208952091DC
:103DA000000130910101F9013196205E3F4F80E022
:103DB000919191118F5FE217F307D1F70895E09188
:103DC0000001F09101018091A6028083E091000141
:103DD000F091010180819091A502892B8083E0916F
:103DE0000001F091010180819091A402892B8083D0
:103DF00090918302992361F0E0910001F09101011B
:103E00008081892B80830E94CF1E811110928302B2
:103E100080910001909101010C9426136DEE7EEFCC
:103E200090E080E00E942B2C60E082E090E00E9415
:103E3000192C60E083E090E00E94192C60E084E09F
:103E400090E00E94192C60E085E090E00C94192C21
:103E500090E080E00E94132C21E08D3E9E4F09F0FF
:103E600020E0822F089582E090E00C940B2C682FC4
:103E700082E090E00C94192C83E090E00C940B2CE1
:103E8000682F83E090E00C94192C84E090E00C946F
:103E90000B2C682F84E090E00C94192C8091DE02AA
:103EA000843039F11092A80288E190E020E40FB646
:103EB000F894A895809360000FBE2093600080E086
:103EC0000E94520F83B7817F846083BF83B7816074
:103ED00083BF7894889583B78E7F83BF0FB6F8949D
:103EE000A8958091600088618093600010926000C6
:103EF0000FBE089508950895CF930E947A1F0E94DF
:103F000007120E947B1FC0E08C2F0E940913672BB1
:103F1000682B692B31F4CF5FC830B1F780E0CF91C7
:103F2000089581E0FCCF0E9410180E941A130C948F
:103F3000520F1F920F920FB60F9211248F939F93DF
:103F4000AF93BF938091A802811113C08091D402D6
:103F50009091D502A091D602B091D7024196A11DB1
:103F6000B11D8093D4029093D502A093D602B09352
:103F7000D702BF91AF919F918F910F900FBE0F907D
:103F80001F90189582E084BD93E095BD9AEF97BD90
:103F900080936E0008952FB7F8948091D402909189
:103FA000D502A091D602B091D7022FBF0895CF922B
:103FB000DF92EF92FF920F931F932FB7F8944091E7
:103FC000D4025091D5026091D6027091D7022FBFD2
:103FD0006A017B01EE24FF248C0130E020E0C01652
:103FE000D106E206F30650F0481B590BCA011F9197
:103FF0000F91FF90EF90DF90CF90089541505109BD
:10400000F3CF1F920F920FB60F9211248F939F93AD
:10401000AF93BF938091D4029091D502A091D60224
:10402000B091D7020196A11DB11D8093D402909347
:10403000D502A093D602B093D702BF91AF919F91C2
:104040008F910F900FBE0F901F9018950E94B1276F
:10405000F8942FEF87EA91E6215080409040E1F7F5
:1040600000C0000087E090EBDC018093E7029093B2
:10407000E802A093E902B093EA0288E19CE00FB65F
:10408000F894A895809360000FBE90936000FFCFD6
:104090008F929F92AF92BF92EF92FF920F931F93D6
:1040A000CF93C0E0E82EF12C8C2F0E9409134B0116
:1040B0005C0110E000E0D501C401002E04C0B695FB
:1040C000A795979587950A94D2F780FD13C00F5F47
:1040D0001F4F0931110579F7CF5FC83029F780E00C
:1040E000CF911F910F91FF90EF90BF90AF909F9055
:1040F0008F900895602F7C2F80E00E94550FE81666
:10410000F90629F781E0ECCFCF93C82F8CE20E940B
:104110004820882321F08C2FCF910C94482080E0F8
:10412000CF910895CF930E94281F811102C00E9451
:104130000E1FC5E608C00E9407128FE39CE9019795
:10414000F1F700C00000C150B1F789E20E9484205D
:104150008111EFC08AE20E94842081110E940E1F0B
:1041600085E00E94842081110E9426200E94331F36
:104170008093A70287E00E948420882371F08BE15E
:104180000E948420882309F4B1C09091A702892F4E
:104190008D7F91FF82608093A7028091A7020E9489
:1041A000371F0E94451F90E09093D9028093D80258
:1041B00080EE0E948420882341F09091D802892FBC
:1041C0008E7F90FF81608093D80289E30E948420D3
:1041D000882341F09091D802892F8D7F91FF8260D2
:1041E0008093D80282EE0E948420882341F090912F
:1041F000D802892F8B7F92FF84608093D80286EE4D
:104200000E948420882341F09091D802892F877FD3
:1042100093FF88608093D80283EE0E9484208823D5
:1042200041F09091D802892F8F7E94FF8061809316
:10423000D80285E30E948420882341F09091D8021F
:10424000892F8F7D95FF80628093D80281E30E9441
:104250008420882341F09091D802892F8F7B96FF8C
:1042600080648093D80281E10E948420882341F0F9
:104270009091D802892F97FB87F980588093D802B4
:104280008091D8020E94491F87E20E948420C82F93
:104290008EE10E9484208111C2608FE10E948420FF
:1042A0008111C46080E20E9484208111C86081E293
:1042B0000E9484208111C06182E20E9484208111C9
:1042C000C06283E20E9484208111C06484E20E9463
:1042D0008420882341F1C0688C2F0E94401F6C2FDE
:1042E00070E090E080E0CF910C94E41B8EE00E949F
:1042F0008420882339F09091A702892F8B7F92FF29
:10430000846049CF80E10E9484209091A702882395
:1043100029F0892F877F93FF88603DCF892F8E7F7B
:1043200090FF816038CFC111D7CF0E943C1F682F0A
:10433000D7CFCF9108958091AB0280FF12C06091DA
:10434000050185E0689FB001112475956795759505
:10435000679560387105A8F561157105A1F1862F83
:10436000089581FF09C06091050185E0689FB00153
:10437000112475956795EDCF82FF07C06091050107
:1043800085E0689FB0011124E4CF2091AC02222384
:10439000A9F0909104016091050185E0689FB0014A
:1043A00011242917B0F6269FA001279F500D112434
:1043B000692F70E0CA010E94DD2BCBCF65E070E071
:1043C000CECF8FE7089581E008958091AB0280FF02
:1043D0000CC06091030170E07595679575956795C0
:1043E0006115710549F1862F089581FF06C060911E
:1043F000030170E075956795F3CF6091030182FD2D
:104400000BC09091AC029923A1F0609102018091C0
:104410000301961738F0682F70E06038710500F3DB
:104420008FE70895899FC001112470E00E94DD2B61
:10443000F4CF61E070E0D7CF81E00895803F31F4A0
:104440000E949B2181958093AF020895813F19F4CA
:104450000E949B21F8CF823F31F40E949B218195DD
:104460008093AE020895833F19F40E949B21F8CFF8
:10447000893F29F40E94E5218093B00208958A3F84
:1044800021F40E94E5218195F7CF8B3F31F40E9402
:10449000E52181958093B10208958C3F19F40E9423
:1044A000E521F8CF843F31F48091AD0281608093A3
:1044B000AD020895853F21F48091AD028260F7CF6F
:1044C000863F21F48091AD028460F1CF873F21F4D3
:1044D0008091AD028860EBCF883F21F48091AD02DE
:1044E0008061E5CF8D3F31F48091AB028160809394
:1044F000AB0208958E3F21F48091AB028260F7CF2A
:104500008F3FB9F78091AB028460F1CF803FC1F457
:104510008091AF0287FD1092AF028091AE028111AF
:104520000EC08091AF0281110AC08091B00281114A
:1045300006C08091B102811102C01092AC020895B0
:10454000813F29F48091AF0218162CF3E6CF9091A9
:10455000AE02823F29F497FFE0CF1092AE02DDCF8A
:10456000833F19F41916CCF3D8CF893F39F48091E1
:10457000B002181694F61092B002CFCF8A3F29F4F9
:104580008091B00287FFC9CFF6CF8B3F39F480917D
:10459000B10287FFC2CF1092B102BFCF8C3F29F486
:1045A0008091B1021816BCF3B8CF843F31F48091EA
:1045B000AD028E7F8093AD02B0CF853F21F4809114
:1045C000AD028D7FF7CF863F21F48091AD028B7FC6
:1045D000F1CF873F21F48091AD02877FEBCF883FF9
:1045E00021F48091AD028F7EE5CF8D3F31F4809133
:1045F000AB028E7F8093AB0290CF8E3F21F48091EF
:10460000AB028D7FF7CF8F3F09F087CF8091AB0250
:104610008B7FF0CF8DEA92E00E9431130E94CB1F76
:104620009093AA028093A90208951F93CF93DF93DA
:104630008091A9029091AA020E94D71FAC0190918B
:10464000AC022091060130E0911106C020910701D3
:104650008AE0289F900111244217530780F080912F
:10466000AE02C091AF021091B002D091B10281119F
:104670000AC0C11178C0111176C0D11174C0DF9188
:10468000CF911F9108959F3F19F09F5F9093AC02C7
:10469000181624F40E949B218093AE028091AE02F2
:1046A00087FF05C00E949B2181958093AE021C1656
:1046B00024F40E949B218093AF028091AF0287FF78
:1046C00005C00E949B2181958093AF026091AE024C
:1046D000662331F1C091AF02CC2311F1062E000CFC
:1046E000770B880B990B0E94E42A23E333E343E31F
:1046F0005FE30E94482B0E94AC2A6093AE026C2FAD
:10470000CC0F770B880B990B0E94E42A23E333E349
:1047100043E35FE30E94482B0E94AC2A6093AF0200
:10472000111624F40E94E5218093B0028091B0021A
:1047300087FF05C00E94E52181958093B0021D1678
:1047400024F40E94E5218093B1028091B10287FF99
:1047500005C00E94E52181958093B102DF91CF9140
:104760001F910C940A239F3F09F08FCFA0CF85E0C3
:10477000EDEAF2E0DF011D928A95E9F71092AC02B2
:104780001092AB0208958091D2020895CF93DF93E7
:1047900000D01F92CDB7DEB79C018091DE0284303D
:1047A00019F593E099833B832A839093E9008FEF77
:1047B0009091E800815095FD06C095ED9A95F1F72E
:1047C00000008111F5CF8091E80085FF0DC050E019
:1047D00040E063E070E0CE0101960E9421268091C6
:1047E000E8008E778093E8000F900F900F90DF9194
:1047F000CF910895CF93DF9300D01F92CDB7DEB74E
:104800002091DE02243031F522E02983805891097D
:104810009B838A8383E08093E9008FEF9091E80087
:10482000815095FD06C095ED9A95F1F70000811134
:10483000F5CF8091E80085FF0DC050E040E063E0D7
:1048400070E0CE0101960E9421268091E8008E77CB
:104850008093E8000F900F900F90DF91CF91089513
:104860009C018091DE028430F9F482E08093E900BB
:104870009FEF8091E800915085FD06C085ED8A95F7
:10488000F1F700009111F5CF8091E80085FF0CC091
:1048900050E040E065E070E0C9010E94212680916F
:1048A000E8008E778093E8000895CF93DF93EC01C2
:1048B0008091DE028430F1F4909112019923E9F0A5
:1048C0009091D80297FF19C08093E9008FEF9091E3
:1048D000E800815095FD06C095E19A95F1F700003A
:1048E0008111F5CF8091E80050E040E060E270E097
:1048F00085FD1AC0DF91CF91089581E08093E90092
:104900008FEF9091E800815095FD06C095ED9A9546
:10491000F1F700008111F5CF8091E80085FFEACF23
:1049200050E040E068E070E0CE010E9421268091D6
:10493000E8008E778093E80080E2FE01A2EBB2E00F
:1049400001900D928A95E1F7D5CF8091DD0281111A
:1049500009C00E94B1270E940E288091E200846065
:104960008093E20008951092DD020895089508955D
:104970000C94931F42E061EC81E00E942F2742E0FB
:1049800061EC82E00E942F2742E061EC83E00E940C
:104990002F2742E261EC84E00C942F278091E00203
:1049A000833009F455C030F4813071F1823009F45C
:1049B00091C008958A3009F47DC08B3009F463C03A
:1049C000893009F044C08091DF02813209F03FC094
:1049D0008091E3029091E402009711F00397B9F5FA
:1049E0008091E800877F8093E8008091E80082FF53
:1049F0002AC08091F1008093D2028091E8008B77E9
:104A00008093E8000C9463278091DF02813AF9F4E7
:104A10008091E800877F8093E8008091E302909185
:104A2000E402892B61F460E282EB92E070E00E9484
:104A300070268091E8008B778093E800089560E00D
:104A400090E080E0F3CF8091DE028111CECF089517
:104A50008091DF02813AD9F78091E3029091E402DC
:104A6000892BA9F78091E800877F8093E8008091E7
:104A7000E80080FFFCCF809112018093F1008091CB
:104A8000E8008E77BDCF8091DF02813201F78091FF
:104A9000E3029091E402892BD1F68091E800877FB0
:104AA0008093E8000E9463278091E10280931201C5
:104AB0000C9410188091DF02813249F68091E80051
:104AC000877F8093E8000E9463278091E2028093B1
:104AD000D30208958091DF02813A09F0B8CF809126
:104AE000E800877F8093E8008091E80080FFFCCF9A
:104AF0008091D302C2CF84B7877F84BF0FB6F8946A
:104B0000A895809160008861809360001092600099
:104B10000FBE80E880936100109261000E946913CB
:104B20000E94B1270E940E288091E2008460809349
:104B3000E20078940E94902A0E946B1388E091E032
:104B40000E9415138091DE02853019F00E947113C6
:104B5000F9CF0E944E1F8091DC02882399F30E94B6
:104B60007C1F882379F30E940B26ECCF292F332753
:104B70002330310579F158F421303105F1F022303C
:104B8000310519F190E080E030E020E01AC02132D8
:104B9000310599F122323105A9F7643098F770E0B8
:104BA000FB01EE0FFF1FE85CFE4F208131816C5C42
:104BB0007E4FFB01808190E004C082E190E029E417
:104BC0003AE1FA013183208308958DE690E02CEDDF
:104BD00039E1F7CF99278130910561F028F00297EC
:104BE00089F6ECEAF9E102C0E8EDF9E1849190E0A0
:104BF0009F01E7CFE0ECF9E1F9CF643008F0C2CFD4
:104C0000E62FF0E0EE0FFF1FE05CFE4F20813181C8
:104C100089E090E0D6CF80E189BD82E189BD09B409
:104C200000FEFDCF8091D8008F7D8093D8008091C9
:104C3000E00082608093E0008091E00081FDFCCF85
:104C40000895AF92BF92CF92DF92FF920F931F937E
:104C5000CF93DF936C01EB018A010E948227F82E2B
:104C6000811123C00115110539F0F801808191816E
:104C7000C81BD90BC80ED91EB12CA12C2097A9F0A6
:104C80008091E80085FD22C08091E8008E778093B6
:104C9000E80001151105A1F0F80180819181A80EAD
:104CA000B91EB182A08285E0F82E8F2DDF91CF91C1
:104CB0001F910F91FF90DF90CF90BF90AF9008951C
:104CC0000E9482278823D1F2F82EEFCFF60181913E
:104CD0006F018093F1002197FFEFAF1ABF0ACECF8B
:104CE000FC018091E5029091E60286179707A0F0FB
:104CF0006115710529F49091E8009E779093E80082
:104D000090E06115710551F4911108C08091E8009F
:104D100082FF35C080E00895BC01F2CF8091DE02B1
:104D20008823C9F18530C9F18091E80083FD31C045
:104D30008091E80082FDEACF8091E80080FFE1CF1A
:104D40002091F3008091F200322F282F6115710518
:104D500019F02830310558F091E02830310509F07C
:104D600090E02091E8002E772093E800CACF81914F
:104D70008093F100615071092F5F3F4FE7CF809121
:104D8000DE02882341F0853041F08091E80083FF06
:104D9000BDCF81E0089582E0089583E00895FC018D
:104DA0008091E5029091E60286179707A0F06115C1
:104DB000710529F48091E8008E778093E80090E0F7
:104DC0006115710551F4911108C08091E80082FFCE
:104DD00036C080E00895BC01F2CF8091DE028823C6
:104DE000D1F18530D1F18091E80083FD32C080910E
:104DF000E80082FDEACF8091E80080FFE1CF2091BA
:104E0000F3008091F200322F282F6115710519F0FF
:104E10002830310558F091E02830310509F090E054
:104E20008091E8008E778093E800CACF84918093C8
:104E3000F1003196615071092F5F3F4FE6CF8091AD
:104E4000DE02882341F0853041F08091E80083FF45
:104E5000BCCF81E0089582E0089583E00895982F03
:104E6000973028F08F708093E90081E00895909347
:104E7000E900242F762F50E0981731F07091EC0064
:104E80002091ED005091F00021FD02C09F5FE8CF1E
:104E90003091EB003E7F3093EB003091ED003D7F91
:104EA0003093ED003091EB0031603093EB00709364
:104EB000EC002093ED005093F0002091EE0027FDD0
:104EC000E5CF80E008958091DF0287FF13C08091D5
:104ED000E80082FF06C08091E8008B778093E800AD
:104EE00004C08091DE028111F2CF08958091DE022C
:104EF0008823D9F38091E80080FFF8CF8091E80003
:104F00008E77ECCF2091E4003091E50085E690911A
:104F1000EC0090FF06C09091E80090FF06C080E092
:104F200008959091E80092FDFACF9091DE029923C6
:104F300091F0953091F09091EB0095FD10C040916B
:104F4000E4005091E5002417350709F381509A01D8
:104F5000F1F684E0089582E0089583E0089581E009
:104F600008950E941F280E942728E0EEF0E080812B
:104F700081608083E8EDF0E080818F77808319BCC9
:104F8000A7EDB0E08C918E7F8C9380818F7E8083A3
:104F90001092DD0208950F931F93CF93DF930E9429
:104FA0001F280E942728C8EDD0E088818F7788834A
:104FB00088818068888388818F7D888319BC10925E
:104FC000DE021092DA021092DC021092DB0200EE96
:104FD00010E0F80180818B7F8083888181608883E5
:104FE00042E060E080E00E942F27E1EEF0E0808167
:104FF0008E7F8083E2EEF0E080818160808380811B
:1050000088608083F80180818E7F808388818061C1
:105010008883DF91CF911F910F910895E8EDF0E023
:1050200080818F7E8083E7EDF0E0808181608083E6
:1050300084E082BF81E08093DD020C94CB27E8ED11
:10504000F0E080818E7F80831092E20008951092BC
:10505000DA001092E10008951F920F920FB60F929E
:1050600011242F933F934F935F936F937F938F936D
:105070009F93AF93BF93EF93FF938091E10082FFE3
:105080000BC08091E20082FF07C08091E1008B7F1E
:105090008093E1000E948F2A8091DA0080FF19C07E
:1050A0008091D80080FF15C08091DA008E7F8093B8
:1050B000DA008091D90080FF94C080E189BD82E14F
:1050C00089BD09B400FEFDCF81E08093DE020E941D
:1050D000A5248091E10080FF19C08091E20080FF4B
:1050E00015C08091E2008E7F8093E2008091E20003
:1050F00080618093E2008091D80080628093D80024
:1051000019BC85E08093DE020E94B7248091E10003
:1051100084FF29C08091E20084FF25C080E189BD21
:1051200082E189BD09B400FEFDCF8091D8008F7D5A
:105130008093D8008091E1008F7E8093E100809180
:10514000E2008F7E8093E2008091E2008160809394
:10515000E2008091DA02882309F449C084E0809358
:10516000DE020E94B8248091E10083FF29C0809173
:10517000E20083FF25C08091E100877F8093E100FA
:1051800082E08093DE021092DA028091E1008E7F4D
:105190008093E1008091E2008E7F8093E200809115
:1051A000E20080618093E20042E060E080E00E94E3
:1051B0002F278091F00088608093F0000E94B62431
:1051C000FF91EF91BF91AF919F918F917F916F91DF
:1051D0005F914F913F912F910F900FBE0F901F90B5
:1051E000189519BC1092DE020E94B32472CF8091F0
:1051F000E30087FD02C081E0B2CF83E0B0CF1F9211
:105200000F920FB60F9211242F933F934F935F93FA
:105210006F937F938F939F93AF93BF93CF93EF93AE
:10522000FF93C091E900CF708091EC001092E900EB
:105230008091F000877F8093F00078940E943B2952
:105240001092E9008091F00088608093F000C09394
:10525000E900FF91EF91CF91BF91AF919F918F9115
:105260007F916F915F914F913F912F910F900FBE62
:105270000F901F9018951F93CF93DF93CDB7DEB794
:10528000AA970FB6F894DEBF0FBECDBFEFEDF2E0E8
:105290008091F100819322E0E73EF207C9F70E9476
:1052A000CE248091E80083FF42C08091DF0290917C
:1052B000E0029A3008F03BC0E92FF0E0EE59F64DDD
:1052C0000C94F12B6C299029972990299729EB2987
:1052D0000D2A9729622A6F2A803879F0823839F5A9
:1052E0008091E3028F708093E9008091EB0085FB51
:1052F000882780F91092E90006C08091DB02909126
:10530000DC02911182609091E800977F9093E80011
:105310008093F1001092F1008091E8008E772DC00B
:10532000282F2D7F21F48823D1F0823059F18091EC
:10533000E80083FF0AC08091E800877F8093E8003F
:105340008091EB0080628093EB00AA960FB6F894F0
:10535000DEBF0FBECDBFDF91CF911F910895809129
:10536000E102813021F7933009F080E08093DC0284
:105370001092E9008091E800877F8093E8000E9406
:105380006327D5CF8091E1028111F2CF8091E302B2
:105390008F7069F28093E9002091EB0020FFE8CF45
:1053A000933031F48091EB0080628093EB00E0CF8A
:1053B0009091EB0090619093EB0021E030E001C010
:1053C000220F8A95EAF72093EA001092EA00809172
:1053D000EB008860EACF8111AACF1091E1021F771C
:1053E0008091E3008078812B8093E3008091E80036
:1053F000877F8093E8000E9463278091E80080FF08
:10540000FCCF8091E30080688093E30083E011117A
:1054100001C082E08093DE028ACF8058823008F09B
:1054200086CF8091E1029091E2028C3D23E09207C9
:10543000A1F583E08A838AE289834FB7F894DE017D
:10544000139620E03EE051E2E32FF0E05093570046
:10545000E49120FF03C0E295EF703F5FEF708E2F65
:1054600090E0EA30C0F0C7968D939D932F5F243172
:1054700059F74FBF8091E800877F8093E8006AE288
:1054800070E0CE0101960E9470268091E8008B7733
:105490008093E8004CCFC096E7CFAE014F5F5F4FDF
:1054A0006091E3020E94B625BC01892B09F43FCF2D
:1054B0009091E800977F9093E80089819A810E94FB
:1054C000CF26E3CF803809F032CF8091E800877F84
:1054D0008093E8008091DA028093F1001DCF811162
:1054E00026CF9091E102923008F021CF8091E80020
:1054F000877F8093E8009093DA020E94632780916F
:10550000DA02882331F084E08093DE020E94BA241C
:105510000ECF8091E30087FDF6CF81E0F5CF0895AF
:10552000CF938091DE02882399F0C091E900CF707B
:105530008091EC0080FD0EC080E0C82B1092E90045
:105540008091E80083FD0E943B29CF70C093E90061
:10555000CF91089580E8F1CF0E94B32A6894B111E9
:105560000C94422B08950E94272B88F09F5798F0A7
:10557000B92F9927B751B0F0E1F0660F771F881F58
:10558000991F1AF0BA95C9F714C0B13091F00E9472
:10559000412BB1E008950C94412B672F782F882779
:1055A000B85F39F0B93FCCF3869577956795B39599
:1055B000D9F73EF490958095709561957F4F8F4F08
:1055C0009F4F0895E89409C097FB3EF4909580950D
:1055D000709561957F4F8F4F9F4F9923A9F0F92FB9
:1055E00096E9BB279395F695879577956795B79537
:1055F000F111F8CFFAF4BB0F11F460FF1BC06F5F1D
:105600007F4F8F4F9F4F16C0882311F096E911C02E
:10561000772321F09EE8872F762F05C0662371F04F
:1056200096E8862F70E060E02AF09A95660F771F63
:10563000881FDAF7880F9695879597F9089557FD93
:105640009058440F551F59F05F3F71F04795880FF0
:1056500097FB991F61F09F3F79F087950895121687
:1056600013061406551FF2CF4695F1DF08C0161633
:1056700017061806991FF1CF8695710561050894E4
:105680000895E894BB2766277727CB0197F90895FB
:105690000E945B2B0C94CC2B0E94BE2B38F00E94F6
:1056A000C52B20F0952311F00C94B52B0C94BB2B3B
:1056B00011240C94422B0E941F2B70F3959FC1F371
:1056C000950F50E0551F629FF001729FBB27F00DB0
:1056D000B11D639FAA27F00DB11DAA1F649F662705
:1056E000B00DA11D661F829F2227B00DA11D621F54
:1056F000739FB00DA11D621F839FA00D611D221F0E
:10570000749F3327A00D611D231F849F600D211DF1
:10571000822F762F6A2F11249F5750409AF0F1F074
:1057200088234AF0EE0FFF1FBB1F661F771F881FDD
:1057300091505040A9F79E3F510580F00C94B52B35
:105740000C94422B5F3FE4F3983ED4F38695779513
:105750006795B795F795E7959F5FC1F7FE2B880F83
:10576000911D9695879597F9089597F99F6780E819
:1057700070E060E008959FEF80EC089500240A94A3
:105780001616170618060906089500240A9412161C
:105790001306140605060895092E0394000C11F44F
:1057A000882352F0BB0F40F4BF2B11F460FF04C0FC
:1057B0006F5F7F4F8F4F9F4F089597FB072E16F413
:1057C000009407D077FD09D00E94F72B07FC05D085
:1057D0003EF4909581959F4F0895709561957F4F08
:1057E0000895EE0FFF1F0590F491E02D0994AA1B78
:1057F000BB1B51E107C0AA1FBB1FA617B70710F0BC
:10580000A61BB70B881F991F5A95A9F780959095ED
:10581000BC01CD010895F999FECF92BD81BDF89AE2
:10582000992780B50895A8E1B0E042E050E00C94DB
:10583000332C262FF999FECF92BD81BDF89A01979E
:1058400000B4021639F01FBA20BD0FB6F894FA9AC8
:10585000F99A0FBE08950196272F0E941A2C0C94D6
:10586000192CDC01CB01FC01F999FECF06C0F2BD79
:10587000E1BDF89A319600B40D9241505040B8F70E
:065880000895F894FFCF2B
:1058860084022808140A321EC32355243024FA231E
:10589600C623016061626364656667909192939422
:1058A600959697C0C1C2C3C4C5C6C7F0303132335E
:1058B60034353637404D3639171BCA1A941A5B1AD7
:0858C600EE19071A201A391A25
:00000001FF
